:020000040800F2
:100000000020002085010008890100088B010008FC
:1000100000000000000000000000000000000000E0
:10002000000000000000000000000000A501000822
:100030000000000000000000A7010008A90100085E
:10004000B5010008B5010008B5010008B5010008B8
:10005000B5010008B5010008B5010008B5010008A8
:10006000B5010008B5010008410E00082D11000877
:10007000B5010008B5010008B5010008B501000888
:10008000B5010008B501000800000000B501000836
:10009000B5010008B5010008B5010008B501000868
:1000A000B5010008B5010008B5010008650E00089B
:1000B0007D13000800000000B501000800000000EA
:1000C0005FF808F173B500F0F3FB002322482349E1
:1000D000234C1A188A4203D2E55804331560F8E716
:1000E0000021204B204A934201D202C3FBE700F0DB
:1000F000E3FB01A9684600F0D3FB1C4B00251E0062
:100100001B4CE41AA410AC4204DDAB00F358984732
:100110000135F8E7174B00251E00174CE41AA41010
:10012000AC4204DDAB00F35898470135F8E701997C
:10013000009801F0EBFC114B05001E00104CE41A76
:10014000A410002C04DD013CA300F3589847F8E705
:10015000280000F0A2FBC04600000020980000200C
:10016000684500089800002004020020E001000813
:10017000E0010008E0010008E8010008E8010008CB
:10018000E801000809480047FEE7042071460842DC
:1001900002D0EFF3098001E0EFF308807146044AD2
:1001A0001047FEE7FEE7FEE770470000C5000008C5
:0601B000A3010008FEE7B8
:1001B80068450008000000209800002068450008F5
:1001C8000000000000000000980000200402002049
:1001D800000000000000000039120008551B00084C
:1001E8000268204B13400360002303604360836070
:1001F800C3601D4B984203D11C4A0F2153682DE060
:100208001B4B984203D1194AF021536826E0194B39
:10021800984204D1F021154A090153681EE0164B93
:10022800984204D1F021114A0902536816E0134B91
:10023800984204D1F0210D4A090353680EE0104B8F
:10024800984204D1F021094A0904536806E00D4B8D
:10025800984205D1F021054A090553680B435360BC
:100268007047C046FEFF0000080002400000024040
:100278001C00024030000240440002405800024086
:100288006C0002408000024002680D4B10B51A4015
:100298000C6A8B6823430C6923434C6923438C699C
:1002A8002343CC6923434C6A23438C6A2343134377
:1002B8000360CB6843600B6883604B68C36010BD04
:1002C8000F80FFFF002903D001220368134302E0D7
:1002D8000268024B134003607047C046FEFF0000EF
:1002E8000368002A02D01943016001E08B430360D0
:1002F8007047F7B50B680193002301249C40019ACD
:10030800224094422CD10A79551E012D15D85E0041
:10031800B44603266746BE408568B54385604E7976
:100328008568BE402E4386608588A54385808C7984
:1003380085889C402C43A4B2848003245D00AC4093
:10034800E443AA4006682640066006683243026015
:10035800C2681440C460CA79C468AA402243C26013
:100368000133102BC9D1F7BD8161704701857047F2
:10037800072310B50F240B409B009C409A40C908E6
:1003880089004018016AA1430162016A0A430262B6
:1003980010BD0000837870B50178002B1BD08B0846
:1003A800104A03269B009B18FF223140B1401600DB
:1003B800C0248E40A4001D59B5434678B60132408A
:1003C8008A402A431A511F2302781A401E3B934041
:1003D800044A136005E01F2319401E3B8B40024A64
:1003E800D36770BD00E100E004E100E0F8B50C233C
:1003F800494D04006868184001F0B0FB1F1F1F1F1B
:100408001D1F1F1F071F1F1F1D000F21C023686806
:100418006A68800C08405B02861C1A4201D13F487A
:1004280006E03D4B3E48DB6A1940013101F0A0FB74
:100438007043206004E03A4B00E03A4B0020236010
:1004480021686B680A00384E1B061B0FF35CDA4004
:10045800130062606A685205520FB25CD340A36011
:100468002A6BD20501D4314A06E02B4A526852045D
:1004780001D45A0800E09A08E2602A6B520601D4B7
:100488002B4A01E08022120222612A6BD20602D492
:10049800244A626100E0616103222F6B1E4E1742FD
:1004A80001D1A36112E0376B1740012F01D1A1617F
:1004B8000CE0376B1740022F02D18022120204E0B1
:1004C800366B3240032A01D1164AA261C0222F6B33
:1004D8009202114E174215D08027336B7F021340CA
:1004E800BB4201D1E1610EE08021336B89021340E8
:1004F8008B4202D180231B0204E0336B13409342EA
:1005080001D1084BE3612B6B1B0602D4044B236219
:1005180000E02062F8BDC0460010024000093D001E
:10052800006CDC0200127A0000000020809FD500D9
:1005380012800000044B5A69002902D01043586108
:1005480001E082435A61704700100240044B9A69E7
:10055800002902D01043986101E082439A617047F4
:1005680000100240044BDA69002902D01043D86118
:1005780001E08243DA61704700100240044BDA68F8
:10058800002902D01043D86001E08243DA60704746
:1005980000100240044B1A69002902D01043186168
:1005A80001E082431A6170470010024030B50388A9
:1005B800154C9BB2A04206D08022D205904202D0B0
:1005C800124A904203D1702293434A881343104A37
:1005D800904203D00F4A0D8913402B4303804B6888
:1005E800C3620B880385A04208D00B4B984205D004
:1005F8000A4B984202D00A4B984201D18B7A038663
:100608000123838230BDC046002C01400004004015
:1006180000100040FFFCFFFF004001400044014083
:100628000048014001220388002901D0134300E05B
:1006380093430380704700001A4B10B598420AD1C3
:1006480080200121C001FFF799FF80200021C0010F
:10065800FFF794FF24E0144B984208D18020012131
:100668008002FFF797FF80200021800216E00F4BE1
:10067800984208D180200121C002FFF78BFF80201B
:100688000021C0020AE00A4B984209D180200121CA
:100698000003FFF77FFF802000210003FFF77AFFA8
:1006A80010BDC046003801400044004000480040EA
:1006B800004C00400122F0B50D0003688BB0934355
:1006C80003604268204B040013408A681343436068
:1006D80002681E4B1A404B68C9680B4329690B43D3
:1006E8001343036082681A4B13406A69134383609B
:1006F80001A8FFF77BFE174B079E9C4204D0164BC0
:10070800089E9C4200D0039E23682F681B0400D5D6
:1007180076003900300001F02BFA3900050030006E
:1007280001F0ACFA00237F08B9425B41ED18236859
:100738001B0404D5094B2A07520F1D401543ADB2BF
:10074800A5810BB0F0BDC046FFCFFFFFF3E9FFFF67
:10075800FFFCFFFF0038014000440040F0FF0000AC
:1007680001220368002901D0134300E0934303608A
:100778007047808CC005C00D70470000002904D068
:1007880080228368D201134302E08268014B134040
:1007980083607047FFBFFFFF8268034B134083608D
:1007A8008368194381607047FF7FFFFF0268044B2D
:1007B8004905134003600368194301607047C04648
:1007C800FFFF1FFC0268044B090413400360036821
:1007D800194301607047C046FFFFE0FF8368002AA5
:1007E80002D01943816001E08B4383607047FF2387
:1007F80010B50C121C401940FE3B8B40022C01D155
:10080800043002E0032C00D10830002A02D002682C
:10081800134302E002689A431300036010BD038B80
:10082800002A03D0194389B2018301E08B43038373
:10083800704700008268034B134083608368194344
:1008480081607047FFEFFFFF01627047FF230A12C4
:100858001A400B4010B51C000123A340012A01D106
:10086800026804E0022A01D1426800E0826813406D
:10087800C2690020834206D0090C0130884010402C
:10088800431E9841C0B210BD0123090C8B4003627E
:10089800704710B500F010F801230360014B0B609E
:1008A8007047C0461000002010B500F013F810BDC6
:1008B80010B500F06BF810BDBFF34F8F034A044B1F
:1008C800DA60BFF34F8FC046FDE7C0460400FA0563
:1008D80000ED00E00121254B1A680A431A605868A8
:1008E800234A02405A601868224A02401A6018686F
:1008F800214A02401A605868204A02400F205A6074
:10090800DA6A8243DA62186B1D4A02401A635A6B2C
:100918008A435A6300229A601A4A103111605A6851
:100928005A605A685A605968174A0A40A0215A60A2
:100938005A6889030A4380215A601A6849040A439D
:1009480080211A6089041868084A0842FBD00320ED
:1009580051688143516051680138014351600C214D
:100968005A680A40082AFBD17047C0460010024066
:100978000CB8FFF8FFFFF6FEFFFFFBFFFFFFC0FF0D
:10098800ACFEFFFF00200240FF7FC0FF0C2370B5C4
:10099800144D154E6A681340042B03D0082B04D05D
:1009A800124B00E0124B336013E00F21C0236C6838
:1009B8006A68A40C0C405B0202341A4201D10D484B
:1009C80005E0EB6A0A481940013101F0D1F84443C7
:1009D80034606B68084A1B061B0FD35C3268DA4028
:1009E800326070BD001002402800002000127A001A
:1009F800006CDC0200093D001800002000234B8039
:100A08004B60704770470000034B01710833036067
:100A180000234271837170474443000810B50400F5
:100A2800FFF7F2FF064B2000083323600023A36082
:100A3800E3602361E361A36163612362636210BDC4
:100A4800544300088160704770B50E000021051CF2
:100A580001F02CF900280FD080231B06E818144950
:100A680001F032FA134901F02FFA01F047F9840036
:100A7800A408002E16D10CE00D49281C01F024FA18
:100A88000C4901F021FA01F039F98400A408002E7C
:100A980002D180231B061C430021281C01F006F903
:100AA800002802D08023DB051C43200070BDC0460F
:100AB8000000704200401C468023F7B5040080798E
:100AC800DB050D005E6A062800D9C2E001F046F891
:100AD800041426405C7DA400A36AB34200D3B8E0A6
:100AE800802332361B01A662A0684B8000F0FEFD11
:100AF80003F066F901210EE0E36AB34200D3A8E0EF
:100B0800802332361B01E662A0684B8000F012FE9B
:100B180003F056F90021FFF797FF99E0236BB342E2
:100B280000D396E08223F5361B01FF3626634B80FF
:100B3800A36800211A00043378325170D86F03F08B
:100B4800C5F80022474B01F0A7FF0022454B16E0ED
:100B5800636BB3427DD28323F5361B01FF36666390
:100B68004B80A36800211A0058325170186E03F0A8
:100B7800ADF800223B4B01F08FFF00223A4B02F008
:100B8800A1FA01F0D3F863E0A36BB34261D2A36882
:100B980000271A0068325770186F03F097F8002280
:100BA800304B01F079FF2F4B002202F08BFA01F055
:100BB800BDF82E4B984200D93800FA239B00F6184E
:100BC80084231B01A6636B8042E0E36BB34240D2EF
:100BD8008523A068F5361B01FF36E66338304B8065
:100BE80000F0DAFD0700A068383000F0E1FD0600EB
:100BF800A068383000F0E8FD64210190380001F069
:100C08003DF889B209020E43019B360233431E02A6
:100C1800FF231E436E601CE0236CB34219D2852368
:100C2800A068F5361B01FF36266448304B8000F07B
:100C3800D7FD0600A0683602483000F0DDFD070049
:100C4800A0683E43483000F0E5FD3602304300021C
:100C58006860A3790133DBB2062B00D90023A371A6
:100C6800F7BDC0460000594000408F40A08C0000EE
:100C780010B5FFF7C7FE10BDF0B59024E40585B0A8
:100C8800284D200001220921FFF772FB20000122D4
:100C98000A21FFF76DFB002223492800FFF7A7FD73
:100CA8002800FFF7C9FCC023DB000293032302A935
:100CB800002701264B71022320000B718F71CE7122
:100CC800FFF717FB1B2301AC23702000183B637050
:100CD800A670FFF75FFB0A2320002370073B6370B1
:100CE800A670FFF757FB9623104C9B0180212360C9
:100CF8000C232800490123616760A760E7606761EA
:100D0800FFF798FD21002800FFF7D4FC31002800E8
:100D1800FFF726FD320004492800FFF768FD05B0FB
:100D2800F0BDC0460038014005010500A0000020C4
:100D380070B505000B4C00212000FFF711FD2000C5
:100D4800FFF77AFC084920000D60FFF7B3FC20008C
:100D58000121FFF705FD012204492000FFF747FDA7
:100D680070BDC04600380140A00000200501050004
:100D780070B5184C8CB0060020000D00FFF730FA53
:100D880020000021FFF79EFA134BC0220193102385
:100D98000495039380250023920101A9200005935F
:100DA8000793089309930B930A9202960695FFF707
:100DB8006BFA200001220221FFF792FA0122290092
:100DC8000648FFF70BFD01212000FFF77BFA0CB066
:100DD80070BDC0461C000240283801400038014060
:100DE80010B5040003F005FA01002000FFF7C0FF6A
:100DF80010BD00000C4B10B51860FFF73DFF0B4805
:100E080000F096FB0A4B1868FFF7EAFFFA20C000CB
:100E180000F08EFBE1200002FFF78AFF0E21054853
:100E2800FFF7A6FF10BDC0469C00002088130000F5
:100E38002C0000209343000810B50022022104482A
:100E4800FFF74EFA012203490348FFF7D0FC10BD13
:100E58001C000240060106000038014010B5534945
:100E68005348FFF7F3FC041E09D0524B50481C6846
:100E7800FFF77FFC41B2200000F0EEFD5EE04E4936
:100E88004B48FFF7E3FC002805D022004A494848B0
:100E9800FFF7ADFC52E048494548FFF7D7FC00286A
:100EA80003D045494248FFF7EFFC44494048FFF763
:100EB800CDFC002804D0012210213D48FFF7AFFCEB
:100EC8003F493B48FFF7C2FC002803D03C4938485B
:100ED800FFF7DAFC3B493648FFF7B8FC002803D097
:100EE80038493348FFF7D0FC37493148FFF7AEFCA3
:100EF800002803D034492E48FFF7C6FC33492C4854
:100F0800FFF7A4FC002803D030492948FFF7BCFCB0
:100F18002F492748FFF79AFC002803D02C4924487A
:100F2800FFF7B2FC842122484900FFF78FFC002814
:100F380004D084211E484900FFF7A6FC40211C4824
:100F4800FFF782FC80211A484903FFF77DFC8021C6
:100F580017488902FFF778FC802115484901FFF7F7
:100F680073FC802112480901FFF76EFC80211048AC
:100F78008900FFF769FC80210D484900FFF764FCF0
:100F880010210B48FFF760FC08210948FFF75CFCBB
:100F980004210748FFF758FC02210548FFF754FCD5
:100FA80001210348FFF750FC10BDC04605010500AC
:100FB800003801409C0000200601060007010700D8
:100FC800000303000A0309000602080004010400E4
:100FD80000030200114A10B5114913887E2807D171
:100FE8007D24CC549C1C013314809BB25E2207E004
:100FF8007D2807D19C1C14805D22C85401339BB204
:10100800CA5402E05C1C1480C854064A1388181895
:1010180080B20312C018C0B2108010BD2A0100208F
:10102800B90000202C010020F0B590270122FF050F
:101038008BB011003800FFF79BF93800012202211C
:10104800FFF796F9012238000321FFF791F90125EE
:101058000223002602AC029321005B193800257197
:101068006371A671E671FFF744F90C230293093BFB
:1010780063710223210038002371A671E571FFF71F
:1010880038F91C2301AC237020001A3B6370A5704B
:10109800FFF780F90B23200023706570A570FFF718
:1010A80079F9E12380211B0204930423144C49019C
:1010B800200008930596069607960996FFF7BAFB4F
:1010C80004A92000FFF7F6FA29002000FFF756FBD5
:1010D800802120000902FFF75FFB20000221FFF7B3
:1010E80065FB20000221FFF76DFB29002000FFF7B8
:1010F80037FB2A0003492000FFF779FB0BB0F0BD4E
:10110800004400400501050010B5044B01001860BB
:101118000348FFF797FCFFF787FF10BD3001002059
:10112800DC00002010B5002202210448FFF7D8F89F
:10113800012203490348FFF75AFB10BD440002404F
:10114800060106000044004070B5060090201B4CC4
:101158008CB00D00C0050221FFF706F92000FFF74B
:101168003FF820000021FFF7ADF8154BC02201938E
:1011780010230296039380260023920101A92000E0
:10118800049505930793089309930A920B9306967F
:10119800FFF77AF849230B4D20002B60012202212A
:1011A800FFF79EF8012231002800FFF717FB012105
:1011B8002000FFF787F80CB070BDC046440002401D
:1011C8002844004000440040002370B51A00040081
:1011D800144E154DEA5401339BB2202BFAD100234B
:1011E80010203380FFF7F6FEA078FFF7F3FEE078D3
:1011F800FFF7F0FE2079FFF7EDFE6079FFF7EAFED2
:10120800A079FFF7E7FEE079FFF7E4FE074B1888BF
:10121800C043C0B2FFF7DEFE31882800FFF794FF15
:1012280070BDC0462A010020B90000202C01002012
:1012380010B5012200210248FFF7F0FB10BDC0469F
:10124800DC000020F8B5041E444D7E2C02D1012399
:101258002B7082E0424B1A781F00002A03D020230B
:101268005C4000233B707D2C06D12B78033B062B7A
:1012780002D801233B7061E0297801291FD100239E
:10128800384E73800023736002332B70364B3470F2
:101298001B79A34261D1354B186800F090F93100F1
:1012A8003148FFF709FC314B0021186800F087F935
:1012B800042000F03DF93000FFF786FF3EE00229E8
:1012C80005D1102C33D12A4B1C80032304E00329B9
:1012D80004D1244B9C7004232B702FE0042903D1E4
:1012E800204BDC700523F7E7052903D11D4B1C7142
:1012F8000623F1E7062903D11A4B5C710723EBE7B4
:10130800072903D1174B9C710823E5E7082903D166
:10131800144BDC710923DFE7092908D1144B1A881B
:10132800FF239B1A9C420DD100233B70D4E7002376
:101338000C4A3B702B701370538053602B78043B1E
:10134800052B0AD83B78002B07D1094A13881C19AA
:10135800A4B22312E418E4B21480F8BDB800002047
:101368002801002020010020DC000020300100209E
:10137800DA00002070B5554C55492000FFF766FA91
:10138800051E06D02000FFF7F4F9C0B2FFF75AFF98
:1013980065E050492000FFF759FA00280CD02000DA
:1013A8002A004C49FFF723FA2523902023600221C5
:1013B800C005FEF7DBFF52E046492000FFF746FA7A
:1013C800002803D043492000FFF75EFA42493F480E
:1013D800FFF73CFA002804D0012210213B48FFF710
:1013E8001EFA3E493948FFF731FA002803D03B4935
:1013F8003648FFF749FA3A493448FFF727FA0028F0
:1014080003D037493148FFF73FFA36492F48FFF7ED
:101418001DFA002803D033492C48FFF735FA324922
:101428002A48FFF713FA002803D02F492748FFF767
:101438002BFA2E492548FFF709FA002803D02B4933
:101448002248FFF721FA842120484900FFF7FEF9D6
:10145800002804D084211D484900FFF715FA4021CF
:101468001A48FFF7F1F9802118484903FFF7ECF90A
:10147800802116488902FFF7E7F9802113484901BE
:10148800FFF7E2F9802111480901FFF7DDF9802112
:101498000E488900FFF7D8F980210C484900FFF76A
:1014A800D3F910210948FFF7CFF908210748FFF7BA
:1014B800CBF904210548FFF7C7F902210348FFF7D4
:1014C800C3F901210148FFF7BFF970BD004400408E
:1014D80005010500060106000701070000030300D7
:1014E8000A030900060208000401040000030200C0
:1014F800FA2130B500250D4B85B001AC186889007C
:10150800658000F035FB2581A57280250123ED0556
:101518005B422080210028006360FFF747F8012123
:101528002800FFF77FF805B030BDC046280000202E
:101538008023DB05596A5A6A521A8242FBD37047E4
:1015480000230221421D037043708380836003736C
:1015580003824361037683830362D377233203854F
:10156800C36213724363103213705370C363103233
:1015780013705370C36410321370537003661032C3
:1015880013705370036713745374021DD367843246
:1015980013705370936013745374936110321374FF
:1015A8005374937410329174D3741375537518323D
:1015B800136053609360D360153A13707047AA3074
:1015C80001707047CBB21A00413A052A01D8373961
:1015D80005E00800613B3038052B01D85739080071
:1015E800704770B500268657642533002D3B5A4254
:1015F8005341C418200002F0D9FD4543002020566D
:1016080002F0DAFD002801D00134F7E70023E356A1
:101618002E2B15D10120205602F0CEFD00280FD028
:1016280001230A220220E3562056303B5343ED188B
:1016380002F0C2FD002803D00223E356303BED1828
:1016480028002D2E00D1684270BD0000F8B50D00AD
:10165800040002F0ABFD6421070000F00FFB1848FE
:10166800484364210600380000F082FA28800020F0
:10167800205602F0A1FD002801D00134F7E700232D
:10168800E3562E2B12D10E4F00200134205602F0C3
:1016980093FD00280AD038000A2100F069FA0023D7
:1016A800E3560700303B4343F618EDE70520704347
:1016B8000321013000F05CFA002368602B72F8BD4A
:1016C8008096980070B50400092521002A001C3175
:1016D800043002F07BFD200021002A002831103060
:1016E80002F074FD01232370637070BD0023D0B530
:1016F80004004370806802F02BFB00220C4B01F0C1
:10170800CBF90600A0880F0002F0E0FA02000B00F7
:101718003000390000F094FE0200207B0B00002806
:1017280002D080231B06CB1810001900D0BDC0467C
:1017380065CDCD410023D0B504004370406902F067
:1017480007FB00220C4B01F0A7F90600208A0F00C6
:1017580002F0BCFA02000B003000390000F070FE05
:101768000200207E0B00002802D080231B06CB1825
:1017780010001900D0BDC04665CDCD4110B504009C
:101788000800FFF72EFFA06010BD10B50400080088
:1017980002F00CFDA06010BD002310B56421437059
:1017A800406800F06BFAFA23DB00C91888B210BD54
:1017B800002310B564214370406800F0D9F9642112
:1017C80000F05CFAC8B210BD002310B5034943709D
:1017D800406800F0CDF9C0B210BDC0461027000027
:1017E800002310B503494370406800F0C1F9C0B246
:1017F80010BDC04640420F00002310B50449437095
:10180800406800F0B5F9642100F038FAC8B210BD9C
:1018180010270000002310B564214370406800F0D1
:10182800A7F9642100F02AFAC8B210BD10B5040067
:101838000800FFF7D6FEE06010BD10B504000800F0
:1018480002F0B4FCE06010BDF8B50300A9331D78C0
:101858000400002D73D002215956FFF7B3FEAC21C6
:10186800060061562000FFF7ADFE23003601A833BD
:1018780030181B78C0B283425AD12200CC32136888
:10188800013313602300BD331E78002E03D0083ABD
:101898001368013313602300BA331F78002F22D056
:1018A800012F00D0D1E0236CE363230038331F708D
:1018B8005F70236DE364230048331F705F70002E50
:1018C80000D1C2E02000FFF7FDFE636E2000236612
:1018D800230058331F705F70636F683023673500CB
:1018E80007704770B1E0236D0122E3642300483399
:1018F80027001A70012208375A70002E0AD02000DB
:10190800FFF7E0FEFA6F231DDA67012274331A70BD
:1019180001225A7022008832D36820009360012384
:10192800983013705370C2680370826043708CE003
:101938002000C830036800250133036085E00300F8
:101948000600BB331978BA36002912D1AB344049A6
:10195800200002F044FC0123002808D03D49200063
:1019680002F03DFC002801D135706EE0022333708F
:101978006BE03078022868D02200AB321378002B55
:1019880063D040010843013828285ED800F0E6F803
:101998001522252C32464F55585D5D5D5D5D5D5DB8
:1019A8005D5D5D5D5D5D5D5D5D5D5D5D5D5D5D5D5F
:1019B800151B22252C323A3D4000200011004830EA
:1019C800FFF7DCFE41E020005BB2413B5942594140
:1019D800BD3015E021001C3108E05BB2533B594291
:1019E8005941601DC17730E0210028311000FFF710
:1019F8002DFE2AE05BB2573B200059425941303056
:101A0800017022E0200058301CE02000683019E006
:101A1800200011003830FFF7B8FE16E05BB2012253
:101A2800302B00DC00222000BD3002700DE02000C9
:101A380011008830FFF701FF07E02000983001E02F
:101A4800200078301100FFF7F1FE2800F8BDC046ED
:101A5800644300086A430008F8B50300AA33040089
:101A680018780D00C0B2002801D0002049E02200FB
:101A780026002700C0321368BC3601331360A9372B
:101A8800242923D004DC0A290BD00D292AD108E007
:101A98002A2906D02C2925D12200A83213784B40B8
:101AA8001370337800200E2B05D8E318AB33187069
:101AB8002000FFF7C9FEBB3423782A3D0133237089
:101AC800002333706B426B413B701AE02300022203
:101AD800BB333070133BD874BD3418709A743870A7
:101AE80020700EE033780D2B04D85A1CE318AB3362
:101AF80032701D7038780028B7D1A83423785D403B
:101B08002570F8BD802010B501218002FEF712FD76
:101B180080200121C001FEF719FD802001218002EB
:101B2800FEF720FD01210800FEF704FD0121080051
:101B3800FEF718FDFFF7DCFC034C2000FFF75AF90D
:101B48002000FFF7E1FAFEE73401002010B5024853
:101B5800FFF7F6FC10BDC0463401002002B4714600
:101B680049084900095C49008E4402BC7047C046D8
:101B7800002243088B4274D303098B425FD3030AC4
:101B88008B4244D3030B8B4228D3030C8B420DD3D7
:101B9800FF22090212BA030C8B4202D31212090265
:101BA80065D0030B8B4219D300E0090AC30B8B42A3
:101BB80001D3CB03C01A5241830B8B4201D38B0351
:101BC800C01A5241430B8B4201D34B03C01A5241F6
:101BD800030B8B4201D30B03C01A5241C30A8B4239
:101BE80001D3CB02C01A5241830A8B4201D38B0224
:101BF800C01A5241430A8B4201D34B02C01A5241C8
:101C0800030A8B4201D30B02C01A5241CDD2C30939
:101C18008B4201D3CB01C01A524183098B4201D3B5
:101C28008B01C01A524143098B4201D34B01C01AA0
:101C3800524103098B4201D30B01C01A5241C30818
:101C48008B4201D3CB00C01A524183088B4201D387
:101C58008B00C01A524143088B4201D34B00C01A73
:101C68005241411A00D20146524110467047FFE7DF
:101C780001B5002000F006F802BDC0460029F7D0E3
:101C880076E770477047C0468446081C6146FFE700
:101C98001FB500F0D5F8002801D40021C8421FBDA7
:101CA80010B500F061F84042013010BD10B500F0E9
:101CB800C7F8002801DB002010BD012010BDC04678
:101CC80010B500F0BDF8002801DD002010BD01208E
:101CD80010BDC04610B500F06FF8002801DC0020E8
:101CE80010BD012010BDC04610B500F065F80028F1
:101CF80001DA002010BD012010BDC0469E2110B59C
:101D0800C905041CFFF7F0FF002803D1201C00F0D0
:101D180075FB10BD9E21201CC90500F0E9F900F0F3
:101D28006DFB80231B069C466044F2E770B50022D9
:101D38000C4B04000D0002F003F9002804D1200028
:101D4800290001F08DFF70BD064B002220002900FC
:101D580001F032FC01F084FF80231B069C4660449E
:101D6800F1E7C0460000E041430270B542004C0074
:101D78005D0AC30F4802120E460A240EC90FFF2A35
:101D88000FD0FF2C11D00120A24200D070BDB54267
:101D9800FCD18B420DD0002AF8D12800431E98416F
:101DA800F4E70120002DF1D1EBE70120002EEDD161
:101DB800E9E70020EAE7C0464302F0B542005D0AC1
:101DC800C30F4802440A4800120E000EC90FFF2A2A
:101DD8001FD0FF2822D0002A09D16E426E41002868
:101DE8000FD1002C0DD10020002D09D005E00028CE
:101DF80001D1002C01D08B4213D058420123184343
:101E0800F0BD002EF7D04842414101204942084325
:101E1800F6E7002DDDD002204042F1E7002CDAD0B1
:101E2800F9E78242E9DC04DBA542E6D80020A542B6
:101E3800E6D25842434101205B421843E0E7C046DE
:101E48004302F0B542004C005E0AC30F4802120E6E
:101E5800450A240EC90FFF2A17D0FF2C19D0002AD3
:101E68000BD170427041002C17D0002807D048428F
:101E78004141012049420843F0BD002C13D08B4258
:101E880014D0584201231843F6E70220002EF3D15C
:101E9800E3E70220002DEFD1E1E7002DE5D1002096
:101EA800002EE9D0EDE7002DE9D1EAE7A242E8DC0F
:101EB80004DBAE42E5D80020AE42DDD258424341B1
:101EC80001205B421843D7E7F0B557464E464546D2
:101ED8004300E0B446028846760A1F0EC40F002F5E
:101EE80047D0FF2F25D0002380259A469946F60033
:101EF800ED042E437F3F434642465D02D20F5B000E
:101F08006D0A1B0E904640D0FF2B39D0802200204E
:101F1800ED00D20415437F3BFB1842465746591C37
:101F280062408C4607430F2F5CD86F49BF00C959E0
:101F38008F46002E45D108239A46063B9946DAE794
:101F4800424602282DD0032800D1C3E0012800D042
:101F5800A2E0002500260240D4B27602ED05760AFA
:101F68002E43E407264330001CBC90469946A246FF
:101F7800F0BD002E1AD104239A46033B9946BAE7CE
:101F88002A00511E8A41901CC6E70120002DC3D0AB
:101F9800280001F0DFFF431F76309D4043420020B8
:101FA800BAE70124FF2514400026D6E7300001F0E7
:101FB800D1FF431F9E400023763047429A469946F8
:101FC80099E70C239A46093B994694E78026002412
:101FD800F603FF25C1E735004846B2E73500220081
:101FE8004846AEE72904090C0800370C3604360CBD
:101FF8002C0C7943704367437443060C64183619F4
:10200800B14203D980214902884647440004000CA4
:10201800310409188D01681E8541890E2943350C44
:10202800ED19AD010D43290104D5012369081D40AF
:1020380063460D4319007F31002925DD680704D068
:102048000F202840042800D00435280103D527494B
:1020580080330D401900FE29A3DC0124AD016E0A6E
:102068001440CDB279E78020C003064207D005426C
:1020780005D128434602760A4446FF256DE7064304
:102088007602760AFF2568E70124611A1B2905DD17
:1020980014400025002660E76346CBE72E00202386
:1020A800CE40591A8D406B1E9D412E43730704D0B4
:1020B8000F233340042B00D00436730104D50124C8
:1020C80001251440002648E70124B601760A144089
:1020D800002542E780260124F6032E437602760A7D
:1020E8001440FF2539E7C046A4430008FFFFFFF767
:1020F800F8B54A024E0043024400240EC50F9B095E
:10210800360EC90F9209FF2E00D183E0012041400D
:10211800A01BA9425CD0002800DC95E0002E1CD151
:10212800002A00D081E05A0704D00F221A40042A5E
:1021380000D004335A013BD50134FF2C00D191E083
:1021480001209B015B0AE4B205405B02E4055B0ADF
:10215800ED0723432B431800F8BDFF2CE3D0802163
:10216800C9040A431B2800DD90E016002021C64060
:10217800081A8240511E8A4132439B1A5A0115D5CA
:102188009B019E09300001F0E5FE05388640844237
:102198006CDC041B330020200134E340041BA64000
:1021A800721E964100243343BDE70D005A07BCD187
:1021B800DF0801231D40FF2C33D1002F00D190E010
:1021C8008022D20313003B435B025B0AFF24BCE777
:1021D80000284FDD002E2ED0FF2CA4D08025ED0442
:1021E8002A431B2800DD97E016002025C640281A40
:1021F8008240501E824132439B185A01D5D5013482
:10220800FF2C6DD001227B481A405B080340134322
:102218000D0088E7002A00D07AE777E7031EC5D1CA
:1022280000257B025B0AE4B28FE701380028A4D0BE
:10223800FF2C97D177E7002A00D174E701380028EE
:10224800DAD0FF2CCDD16EE7002821D1601CC0B2B6
:10225800012858DD80279E1AFF0437402FD0D61A50
:102268000D008FE701231D4000236EE7624B241AFF
:10227800334058E7002851D1601CC6B2012E33DD27
:10228800FF282DD09B185B0804004CE7012274E757
:10229800002C1AD0FF2E1FD08024E4044042234390
:1022A8001B2800DD96E01D002024C540201A83402D
:1022B800581E83412B43D31A34000D005EE7002ECD
:1022C80000D05FE700250024ABE7002B44D0C043D3
:1022D8000028F0D0FF2EE3D11300FF240D0022E7E1
:1022E8000D00FF24002330E7002C5DD1002B7DD0AA
:1022F800002A00D117E79B185A0100D456E73E4A36
:10230800040013400FE7002C1ED1002B2FD1002A08
:1023180065D013000D0006E701226DE7002C1FD1E0
:10232800002B59D0C04300280BD0FF2E4FD01B28BC
:102338005EDC1D002024C540201A8340581E8341BE
:102348002B439B18340058E7002B1CD1002A49D096
:1023580013000D00FF24E6E6130034000D00E2E64A
:10236800FF2E34D08024E40440422343DFE7002AD0
:1023780000D1D8E68027981AFF04074000D14DE71E
:10238800D31A0D00CFE6FF24002A00D1CBE6802027
:10239800DB08C003034204D0D208024201D1130073
:1023A8000D00DB00FF24BEE6002B10D0FF24002A1E
:1023B80000D1B8E68020DB08C003034203D0D2086E
:1023C800024200D11300DB000D00FF24ABE613002E
:1023D800FF24A8E601236EE713003400A3E60027D4
:1023E80000251EE780270025FF03E9E613009AE68B
:1023F8000123A6E7FFFFFF7DFFFFFFFB4302590A0A
:102408004300C20F1B0E00207E2B0EDD9D2B0DDC22
:10241800802000040143952B0BDC9620C31AD94079
:102428000B005842002A00D118007047034BD018FF
:10243800FBE7963B99400B00F3E7C046FFFFFF7FA1
:10244800F8B556465F464D464446F0B40F00FD0FBA
:10245800AA4609037C002E005F00450F490A7F0D3C
:102468002943C5001803BC46400A570F640DDB0F0B
:102478003843D2009A4500D1AAE06646A61B002E32
:1024880000DCFFE06346002B39D10300134300D082
:10249800D9E06B0709D00F232B40042B05D02B1D47
:1024A800AB42AD416D4249191D000B0200D482E0D8
:1024B800CA4B01349C4200D1FEE00A005646C84B84
:1024C800ED081A405007640552020543120B640DCB
:1024D800002112030B0D1B056405120B1A43630838
:1024E800C04CF60714401C436400640834432800B9
:1024F80021003CBC90469946A246AB46F8BDB74B76
:102508009C42C6D080231B041843382E00DDEBE024
:102518001F2E00DD1EE120239B1B9C4603006746FF
:10252800BB40984613004746F3403B436746BA40D2
:10253800571EBA4113430200F240EB1A9D42B641BE
:102548001D008A1A7642911B0B0231D54A02560A9F
:10255800002E00D1B4E0300001F0FCFC0300083B81
:102568001F2B00DDB5E020222900D21AD1409E4061
:102578000A009D4032439C4200DDB1E01C1B631CF5
:102588001F2B00DDD5E0202114002800C91A8C403B
:10259800D8408D400443DA40681E85411100254328
:1025A800002476E74146314300D134E23100454604
:1025B8006B0700D06FE756464807ED08C908054382
:1025C800864B9C4235D00A036405120B640D7FE7E5
:1025D8006346E31A9B46002B00DC8BE06746002F1E
:1025E8003CD07E4FBC4200D153E780273F0438439C
:1025F8005B46382B00DCF7E00243501E8241002086
:10260800D2B253194218AB4289411D004942891878
:102618000B02CDD5714B01349C4200D13DE1012024
:102628006F4A6B080A4028401843D50705435108EC
:102638002FE72B000B4300D1CBE180231B030B4377
:102648001A03120B44E7013E002E6DD1AE1AB542B3
:102658009B41091A5B42C91A350075E70700174301
:1026680000D116E701235B429C46E3445B46002BFE
:1026780000D0E0E0AA18AA429B4109185B42591809
:102688001500C5E7002E75D1661C7605760D012E5E
:1026980000DCF3E0AE1AB0464545BF410E1A7F4252
:1026A800F61B370200D48FE0551BAA42B641411AE7
:1026B80076428E1B9A464BE756460022002507E7CE
:1026C800280001F047FC20300300083B1F2B00DCEA
:1026D80049E72A002838824000259C4200DC4DE763
:1026E8003F49E41A1140D4E60243501E8241D3B256
:1026F800002222E7002B00D0F3E0631C9C465B0518
:102708005B0D012B00DC9FE0344B9C4500D1C3E0FE
:10271800AA180918AA42804140424118CD07520818
:10272800154349086446B4E62C4B9C4200D0ECE6BD
:10273800AFE611001F3CE1400C00202B00D17FE0E8
:102748004021CB1A9A4015436A1E95410021254322
:1027580000242DE733000700203BDF403B00202EFC
:1027680070D04027BE1BB0400243501E8241134325
:102778000022E2E6002C4FD0184CA44500D1ABE073
:102788008024240476422143382E00DDDFE01F2E0A
:1027980000DD43E12027BC1BA1460C004F46BC408E
:1027A800A0462C004746F4403C434F46BD406F1EB0
:1027B800BD41F1402C43151BAA429241411A524295
:1027C800891A64469A46BFE641464546314300D0D9
:1027D800BEE6002600240025F2E6C046FF070000FA
:1027E800FFFF7FFFFFFF0F801F2B59DC2027FF1AF9
:1027F800BC46070063469F405B46B9461700DF406A
:10280800B8464F4643461F4363469A40531E9A4173
:102818005B463A43D840F4E60C002C435CD0F643C0
:10282800002E55D1551BAA42A441411A6442091BE6
:102838009A46644688E6964FBC4200D0D8E628E619
:10284800002280E700208FE70B002B43002C00D0EC
:10285800C2E0002B00D101E10300134300D118E6C8
:10286800AB18AB42B6410918764271180A0200D477
:1028780009E1884A1D00114064460AE6002C5BD134
:102888000E002E4300D08AE00100114300D1C2E0BF
:10289800010015009A46FCE56446002100258FE6F4
:1028A80020235B429C46DC4463460700DF405B46CE
:1028B800BC46202B00D1ACE040235F46DB1B984090
:1028C8000243501E8241634613431A00002098E6D3
:1028D8006F4CA44500D057E70100150064469A469E
:1028E800D7E5002C39D10C002C436ED0DB43002BEC
:1028F8001AD0674CA44568D0382B00DDA4E01F2B04
:1029080000DDAEE020240F00E41AA740B9462F00EE
:10291800DF40B846A3464F46444627435C46A54099
:102928006C1EA541D9403D43AD1895429B410918FD
:102938005B42591864466BE60C002C4315D1010024
:1029480011437BD0010015009A46514CA1E50D4377
:10295800691E8D410021ECB22DE74D4CA44534D0C1
:10296800802424045B422143C6E7040014434ED06C
:10297800ED084C072C438025C9082D03294208D0AF
:10298800C6082E4205D1D208410711430C009A46C9
:102998003100620FC900E50011433D4C79E506009E
:1029A800164300D175E5AE1AB0464545BF410E1A2B
:1029B8007F42F61B370200D4F4E5551BAA42B64104
:1029C800411A7642891B9A4663E501001500644660
:1029D8005FE5002200257BE5002B3BD00300134375
:1029E80015D0ED084B072B438025C9082D03294234
:1029F80007D0C4082C4204D141070B002100D2089B
:102A08001343C9005A0F1143DD00214C41E5204C06
:102A18003FE5002054E700260025D1E534000F00EB
:102A2800203CE7403C00202E2BD04027BE1BB14065
:102A38000D43691E8D4100212C43BCE680210026F0
:102A48000903134C0025BBE50D43691E8D41002188
:102A5800EDB269E7010015000D4C1AE501001500FB
:102A680017E51C000F00203CE7403C00202B0CD051
:102A78004027FB1A99400D43691E8D4100212543CB
:102A880052E70021D4E71D0092E50021F3E7C04694
:102A9800FF070000FFFF7FFFF0B556464D4644464E
:102AA8005F46F0B41D000E034C00CB0F87B0070043
:102AB80092468146360B640D98466AD06D4B9C420F
:102AC80035D08022430F12041343F6001E43C3007F
:102AD8009946694B00279C460023644402932B03C4
:102AE80068001B0BED0F51469B46400D009500D129
:102AF80078E0604B98426CD05B46DA004B0F80213F
:102B080009040B4313439B465346D9005A4B9C4632
:102B1800002360444246201A6A40924601901F43AF
:102B28000F2F00D9B0E05548BF00C059874637433A
:102B380000D088E000239946023308270026029334
:102B4800CDE74346B34649460093029B009A924616
:102B5800022B00D0BFE100215346012200268946FE
:102B68001A40444B002136030C0D2405360B26432E
:102B7800434C1B0526401E437600D20776081643B1
:102B88004846310007B03CBC90469946A246AB4641
:102B9800F0BD330003434FD0002E00D1BCE130001C
:102BA80001F0D8F903000B3B1C2B00DDADE11D2221
:102BB8000100D31A08393A008F408E40DA40B946EE
:102BC8001643304B00279C4600236044444202933E
:102BD80085E753465A4613432CD1002300219B46D0
:102BE800023397E70B4320D05B46002B00D19EE1D0
:102BF800584601F0AFF903000B3B1C2B00DD8FE1B9
:102C080002005946083A91408B461D21CB1A51467D
:102C1800D9400B0059460B4351469B469140194BEE
:102C28009C4660444042002374E7002300219B46F1
:102C380001336FE703236DE7002399460133042727
:102C4800002602934BE703230C27029347E7012250
:102C5800D51A382D00DCB0E153461A400021002374
:102C6800002689467EE700238026994600223603FF
:102C7800004B77E7FF07000001FCFFFFE443000873
:102C8800FFFF0F80F30300005E4500D972E100D119
:102C98006DE1019B4D46013B0193002334000293F3
:102CA8005B461E020B0E1E430B020393330C994620
:102CB80033041B0C494620000093FEF759FF009B84
:102CC800370043430600494620009846FEF7D6FFE2
:102CD8002C0C09040C43A04509D9E419731EA7421A
:102CE80000D95CE1A04500D859E1023EE419434609
:102CF800E41A49462000FEF73BFF0300009A80468D
:102D08005343494620009B46FEF7B8FF2A040904AE
:102D1800120C0A4393450DD94346D219013B9742F9
:102D280000D93AE1934500D837E102235B429C463B
:102D3800D219E0445B46D21A4346360433439B46D5
:102D48000399180C0B0C1D00059309045B46090C2C
:102D58000C001B041B0C4443049159436B43684308
:102D68001B190D0CEB189C4203D980246402A4465D
:102D780060441C0C09041B04090C20185D188242CD
:102D880000D2DEE000D1D7E0161A029B9C465D1BFC
:102D9800AC459B415B42F61AB74200D106E1494671
:102DA8003000FEF7E5FE009B04004343494630002F
:102DB8009846FEF763FF2E0C09040E43B04509D967
:102DC800F619631EB74200D9F3E0B04500D8F0E029
:102DD800023CF6194346F31A494618000293FEF7D7
:102DE800C7FE009B06004343494602989846FEF7F3
:102DF80045FF2D0409042D0C0D43A84509D9ED19EB
:102E0800731EAF4200D9D6E0A84500D8D3E0023EF1
:102E1800ED192404210043463143049E059A3000ED
:102E2800ED1A0B040C0C1B0C5843664353435443D4
:102E38009A19030C9B189E4203D980225202944689
:102E480064441A0C00041B04000C14191B18A54236
:102E580050D34DD001231943964A019B94466344AD
:102E6800002B00DCF3E64A0709D00F220A40042AA7
:102E780005D00A1D8A42894149428B4411005A46AD
:102E8800D20108D55A468C4B1A4093468022D2006C
:102E98009446019B6344894A934200DD5BE65A46A7
:102EA800C908500708435602514601225B0581466E
:102EB800360B5B0D0A4055E680231B031E4211D0DA
:102EC8005A461A420ED15E461E433603360B2A0076
:102ED80089467B4B46E6032B00D1E1E0012BBBD1B1
:102EE8001A40BBE61E433603360B4246744B39E69E
:102EF800002BB1D07D194A1EAF4252D91100A5420C
:102F0800A8D1039A9A42A5D1A6E703003E00283B20
:102F18009E400023994654E601F01CF8203041E613
:102F280003005246283B9A400021934677E65046D4
:102F380001F010F820305EE6029B0026AB4200D379
:102F480023E7039E0299B44661448846B045B641DA
:102F58005B467642F619B218013B0291974213D2AA
:102F680090424FD800D18EE0161A9B460DE789454E
:102F780000D28EE674084B46F60735005B081D4301
:102F88004B46DB0702938BE69742EDD10399029CEF
:102F9800A142E5D93E1A9B46F7E69846CAE61E00C6
:102FA800A5E6AC423ED874D0110053E7012149424E
:102FB80052E71C000EE71E002BE71F2D3CDC2023E8
:102FC8000A0058465B1B9840EA4099400243481E55
:102FD80081415E461143EE404B0709D00F230B4059
:102FE800042B05D00B00191D99429B415B42F61832
:102FF80033023CD55346012200211A400026012302
:103008008946AFE502235B429C46039CE344A44601
:10301800029B63449846A045B6417642F61902934E
:10302800B218B1E603988A1E41008142B641764241
:10303800F619AD19039161E71F225242D31A5A4675
:10304800DA401300202D29D040225846551BA840AD
:103058000143481E814107200B43184000260028E1
:1030680009D00F2200261A401900042ABBD10B00F0
:1030780070077602360BDB08034399460122534654
:103088001A4000236EE502998D42BBD89B46002664
:103098007BE603989842C5D3110032E70020D7E7B2
:1030A80080265B4636031E433603360B009A894654
:1030B800034B57E5FF030000FFFFFFFEFE0700007C
:1030C800FF070000F0B55F4656464D464446F0B44B
:1030D8000D0399464E002B0B87B007009246804699
:1030E8009B46760DCC0F002E69D06D4B9E4235D095
:1030F8005B468022DD001204430F13432B439B469B
:10310800C3009846674B00279C46002366440193FA
:103118004A4615035000D20F53462D0B400D9146D9
:1031280000D176E05E4A90426CD080225B0F120498
:1031380013435C4AED0094461D4353460022DB00CE
:10314800604449463618701C6140029017430F2F9F
:1031580000D9AFE05448BF00C759BF465B461F437C
:1031680000D088E000239B46984602330827019345
:10317800CEE74946022A6AD0032A00D109E2012A89
:1031880000D0BBE111400022002300259046CCB2BC
:1031980000212D030A0D12052D0B1543434A1B056B
:1031A80015401D436D00E4076D082543404629007E
:1031B80007B03CBC90469946A246AB46F0BD0343D7
:1031C80052D05B46002B00D18AE1584600F0C2FE7F
:1031D80003000B3B1C2B00DD7BE11D22D31A3A00B8
:1031E80001005D46DA4008398D4013008F402B43BB
:1031F8009B46B8462E4B00279C4600236044464217
:10320800019385E752462A432CD100250023022248
:1032180097E752462A4321D0002D00D154E12800D7
:1032280000F098FE03000B3B1C2B00DD46E11D213E
:10323800CB1A51460200D9405346083A954093406C
:103248000D431B4A944660444042002279E701241A
:1032580000220C40124B0025904699E700250023D8
:1032680001226EE703226CE700239B469846013350
:10327800042701934CE703230C27019348E7002315
:103288008025984600242D03054B81E75D4643467B
:10329800019A6FE75D4643462100019A6AE7C046F6
:1032A800FF07000001FCFFFF24440008FFFF0F8018
:1032B800F30300004246120C91461A0C944642460B
:1032C80017044A461B041B0C5A43604690464A465C
:1032D80042431000039262461C003F0C7A437C4331
:1032E80042440192220C9246019A5244904506D9D2
:1032F8008246802040028046C24450460390100C0B
:10330800049048462404240C1204121905922A0C2D
:103318002D042D0C68432C00824648467C435043BC
:103328008146200C8046574357444744BA4503D941
:10333800802040028046C144380C3F04B8464844C7
:103348002404240C01900498A04440440490584656
:10335800000C814658460404200C82460700484663
:103368005F434C4643436046604364468346504649
:103378004443380C8446E4186444A34203D98023A8
:103388005B029C46E34448463F04230C3F0C24045C
:10339800E419574668436F4384464D4650465543A3
:1033A8004243380C814662444A445B44944503D9FD
:1033B800802040028446654403983F04834604986D
:1033C8003F0C8446E344C345804140428246100492
:1033D80084460198674484466744A344BC46A34591
:1033E800A4419946D44464428742BF41D4458041B0
:1033F800E144A04699459B417F424042C844074367
:10340800120CBA18A045A4415F423B006442234312
:10341800D71843467D19DB0D6D021D435B465A02E2
:10342800059B1A43531E9A415B46DB0D1A434346DC
:103438005B021343EA0107D501225C0813402343CA
:10344800EA07029E13436D08574AB218002A4BDD5B
:10345800580709D00F201840042805D0181D984295
:103468009B415B42ED180300E80104D54F4A154023
:103478008022D200B2184E48824200DDE7E60124DD
:10348800DB08680718436D02530580462D0B5B0D5A
:103498000C407DE6802259461203114208D015429D
:1034A80006D115432D0398462D0B4C46414B6FE62C
:1034B8005D4615432D032D0B3E4B69E6030055462B
:1034C800283B9D400023BCE6504600F043FD2030D9
:1034D800A8E60300283B9F400023BB46984689E6A0
:1034E80000F038FD203073E60124A61A382E07DDD7
:1034F80000220C4000230025904649E6029EA3E7DF
:103508001F2E20DC20222C001800921BF040944033
:1035180093400443581E83411C43F540630709D078
:103528000F232340042B05D023001C1D9C429241ED
:103538005242AD182B021FD5012400220C40012352
:103548000025904624E61F202C004042821AD440D1
:10355800202E1CD04022961BB5402B43581E834179
:103568000720234318400025002809D00F220025F2
:103578001A401C00042AD8D1230068076D022D0BBD
:103588000124DB08034398460C40002300E600258D
:10359800E3E780220124120315432D0398462D0BDF
:1035A8000C40044BF4E5C046FF030000FFFFFFFE9C
:1035B800FE070000FF070000F0B557464E46454697
:1035C800E0B40E001100F20F9246C500420F180336
:1035D80037037400400A4E0F7F0A3043CF4E17431B
:1035E8005A00640D520DDB0FC900B24200D1E5E06C
:1035F80001267340A61AB446534500D1AFE0002E09
:1036080000DC0DE1002A3AD103000B4300D0E4E0CE
:103618006B0709D00F232B40042B05D02B1DAB4281
:10362800AD416D427F191D003B0200D488E0BB4BC1
:1036380001349C4200D110E13A00B94B51461A407E
:1036480001235007ED08520264050543120B640D6F
:103658000B400021280012030D0D120B64052D05E7
:1036680015436208AF4CDB072C4014436400640820
:103678001C4321001CBC90469946A246F0BDA74BAE
:103688009C42C5D080231B0418436346382B00DDB9
:10369800FDE01F2B00DD30E1624620239B1A02006B
:1036A8009A40664690460A009940F24046464B1EAC
:1036B80099413243114363460200DA40691A8D4248
:1036C8009B410D00BA1A5B42D71A3B0235D57A02E4
:1036D800530A98464346002B00D1C4E0404600F008
:1036E80039FC0300083B1F2B00DDC5E02022290020
:1036F800D21A4746D1409F400A009D403A439C4217
:1037080000DDC0E01C1B631C1F2B00DDE4E0202152
:1037180014002800C91AD8408C408D400443DA4070
:10372800681E854117002543002471E74246634619
:103738001A4300D14CE2674645466B0700D069E75B
:10374800012351467807ED08FA080B4005437349F1
:103758008C4238D012036405120B640D79E7002EF1
:1037680000DC9AE0002A47D06C4A944200D14FE727
:103778008022120410436246382A00DC08E1014323
:10378800481E81410022C9B24919D219A942BF4134
:103798000D007F42BF183A0200D442E15F4A01346B
:1037A800944200D14EE101205D4A69083A40284020
:1037B8000843D507054357089A4629E706000E43EC
:1037C80000D017E714E72900114300D1F9E180215F
:1037D80009030A431203120B3BE701235B42984695
:1037E800C4446346002B72D1691A8D429B413F1A2B
:1037F8005B42FF1A0D0068E702000A4300D107E7A1
:10380800012252429046C4446246002A00D0E6E0B3
:103818006918A942B6413F187642F7190D00BAE770
:10382800002E00D080E0621C5205520D012A00DCF7
:10383800F9E06A1A91464D45B6413A1A7642921B0A
:103848009046120200D499E04D1BA9428941C71B3A
:1038580049427A1A90469A463CE752460123002587
:1038680013400022F5E6280000F074FB2030030026
:10387800083B1F2B00DC39E72A0028388240002546
:103888009C4200DC3EE7264FE41A1740C0E601439D
:10389800481E81410022C9B210E7002E00D0F1E095
:1038A800621C94465205520D012A00DCA0E01B4A16
:1038B800944500D1C5E06918A94292413F18524287
:1038C800D2194908D5070D4357086446A0E6134B9B
:1038D8009C4200D0D9E69BE611001F3CE1400C0059
:1038E800202B00D180E04021CB1A9A4015436A1E54
:1038F80095410027254300241FE763460200203B2B
:10390800DA406346202B71D0402366469B1B9840C3
:103918000143481E814111430022CFE6FF07000002
:10392800FFFF7FFFFFFF0F80002C48D0CA4CA24248
:1039380000D1A2E07442A1468024240427434C46C7
:10394800382C00DDDBE01F2C00DD44E14E4620244E
:10395800A41B3E00A640A246B0464C462E00E640B8
:10396800B4464646644626435446A5406C1EA541C7
:1039780034002C434D46EF400D1B28E04A46434691
:103988004D461A4300D0A5E6002300240025DEE6B4
:103998001F2A5ADC66462022921B06009640914652
:1039A800B04662460E00D640424616434A4691400B
:1039B8004A1E9141020060463143C240E4E63C00A1
:1039C8002C435AD0F443A146002C52D14D1BA94296
:1039D8008941C71B49427F1A14009A4675E69E4AD8
:1039E800944200D0C7E613E600227FE700208FE765
:1039F800002C00D0C8E03B002B4300D10FE10300AE
:103A08000B4300D104E66918A9429B413F185B4269
:103A1800DF193B0200D41AE1904B0D001F406446A9
:103A2800F6E59A4689E63A002A43002C5CD1002A3A
:103A380075D102000A4300D1CAE007000D009A467A
:103A4800E6E564460022002581E662460600203A43
:103A5800D6406246B046202A00D1B7E040226646EA
:103A6800921B904001434246481E81411143002267
:103A78008AE6794CA24200D061E707000D001400E5
:103A88009A46C5E5002C41D13C002C4378D0F4433C
:103A9800A146002C20D0704CA24271D04C46382C44
:103AA80000DDB2E01F2C00DDBCE02026341BA2465E
:103AB8003C005646B4404E46A0462C00F440A4466E
:103AC800444666463443A4465446A54064466E1EA2
:103AD800B54125434C46E7406D188D4289413F1852
:103AE8004942CF19140056E6002A2FD102000A4392
:103AF80000D184E007000D009A46574C88E53D4305
:103B08006F1EBD41ECB200270D1B60E7524CA2426C
:103B180036D0744280263604A1463743BEE70200F9
:103B28000A4300D174E56A1A90464545B6413A1AE7
:103B38007642921B9446120200D4F7E54D1BA94227
:103B48008941C71B49427F1A9A4661E502000A4328
:103B58003AD0ED087C072C438025FA082D032A4229
:103B680008D0C7082F4205D145072C003A009A46CD
:103B7800C9080C43670FD200E5001743364C47E5E8
:103B880007000D00140043E53A002A4343D0020021
:103B98000A4319D0ED087C072C438025FA082D0329
:103BA8002A4207D0C6082E4204D147073C003200FB
:103BB800C9080C43D700620FE50017439A46264C04
:103BC80026E50022002544E5234C21E5002049E7AD
:103BD80000230025BBE54C463E00203CE6404C4611
:103BE800B446202C31D040244E46A61BB7403D4356
:103BF8006C1EA54164462C4300270D1BE7E6802276
:103C080000231203144C0025A1E53D436F1EBD415E
:103C18000027EDB260E707000D000F4CF8E407003D
:103C28000D00F5E44E463C00203EF440A0464C46CC
:103C3800202C0ED040244E46A41BA7403D436F1EA7
:103C4800BD4144460027254346E70027CFE70D003E
:103C580073E50027F2E7C046FF070000FFFF7FFF7C
:103C68000B0330B5134D1A0B4B005B0DC90F002425
:103C7800AB4211DD104CA34210DC802464032243C4
:103C88000E4CE41A1F2C0CDD0D48C31ADA40130041
:103C98005C42002900D11C00200030BD094BCC1823
:103CA800FAE7E040084CA44663449A4013000343F3
:103CB800EEE7C046FE0300001D04000033040000C8
:103CC80013040000FFFFFF7FEDFBFFFF70B5002826
:103CD80030D0C317C4185C40C50F200000F03AF973
:103CE800174B184A1B1AD21A1F2A18DD164AD21A5D
:103CF8009440002224035B05240B5B0D0021100077
:103D080024030A0D1205240B1443104A1B05144002
:103D18001C436400ED0764082C43210070BD21009A
:103D280091400A000B21081AC4405B052403240BA8
:103D38005B0DE3E70025002300240022DEE7C046F0
:103D48001E0400003304000013040000FFFF0F806E
:103D580070B5051E28D000F0FDF8154B154A1B1A42
:103D6800D21A1F2A16DD2C00134A0025D21A9440B5
:103D78005A052403240B520D002124030B0D240B98
:103D88001B0523430D4C1205234013435B002800F9
:103D9800590870BD0B212C00081AC4409540240313
:103DA8005A05240B520DE7E700220024E4E7C04639
:103DB8001E0400003304000013040000FFFF0F80FE
:103DC8004B0070B55E0D0C03751C640A420F6D053F
:103DD8002243C90FC4006D0D012D2ADD3B4BF3189A
:103DE800FE2B1ADC002B42DD8001451EA841D200C3
:103DF8001043620F0243500704D00F2010400428DC
:103E080000D004328020C004104021D00133FF2BA1
:103E180003D09201520ADBB201E0FF2300225202D2
:103E2800520ADB0513435B00C9075B080B43180004
:103E380070BD002E07D01443EFD08020D20080043C
:103E48000243FF23D7E722430023002A03D0052299
:103E5800D208FF2B03D05202520ADBB2DFE7002A56
:103E680032D08020C00302435202520AD7E718001A
:103E7800173014DB8020000402431E20C01A1F28BC
:103E88000FDC2500124BF3189D406E1EB5419A4079
:103E98002B0013432200C2401A430023ABE7002340
:103EA800D5E702256D42EB1A1500DD40202809D020
:103EB800084BF3189A401443621E944122000023D1
:103EC8002A4398E70022F6E70022A8E780FCFFFFD4
:103ED80082FCFFFFA2FCFFFF8446101C62468C4652
:103EE800191C634600E0C0461FB500F0F5F800282D
:103EF80001D40021C8421FBD10B500F049F8404266
:103F0800013010BD10B500F0E7F8002801DB0020F3
:103F180010BD012010BDC04610B500F0DDF8002826
:103F280001DD002010BD012010BDC04610B500F015
:103F38006FF8002801DC002010BD012010BDC0462C
:103F480010B500F065F8002801DA002010BD012046
:103F580010BDC0461C2101231B04984201D3000C4C
:103F680010391B0A984201D3000A08391B099842E4
:103F780001D30009043902A2105C40187047C046FA
:103F8800040302020101010100000000000000001A
:103F9800F0B55F4656464D464446F0B41F035C00F4
:103FA800DB0F9A46194B0E034D00C90F8046360B9E
:103FB8006D0D8B4691463F0B640D9D4219D0134BF6
:103FC8009C421BD00123A54206D018003CBC904659
:103FD8009946A246AB46F0BDBE42F6D1C845F4D1DB
:103FE800D34510D0002DF0D1304303005A1E934121
:103FF800EBE7310001230143E7D1E0E73A4301232E
:10400800002AE2D1DEE70023DFE7C046FF07000011
:10401800F0B55F46444656464D46F0B41F033C0B88
:104028002C4F0E034D00A3465C008446360B6D0DE5
:10403800C90F9046640DDB0FBD422BD0254FBC4203
:104048002ED0002D0ED130430700814678427841AA
:10405800002C17D15F463A4314D14B460020002B61
:104068000AD006E0002C02D15846024301D09942FA
:104078001AD00123484218433CBC90469946A246B0
:10408800AB46F0BD0028F2D05842584101224042C8
:104098001043F1E737000743D0D002204042EBE756
:1040A8005F461743CDD0F8E7A542E2DC05DB5E4565
:1040B800DFD808D000205E45DED2484248410123BF
:1040C80040421843D8E7C445D3D80020C445F4D3A8
:1040D800D2E7C046FF070000F0B55F464D464446AC
:1040E8005646F0B41C03240BA4462F4C0F034D0076
:1040F8005E00C90F80463F0B6D0D8B469146760DCD
:10410800DB0FA54220D0284CA64222D0002D12D188
:10411800384344424441002E20D0002C0DD05C424C
:10412800634101245B421C4320003CBC90469946F5
:10413800A246AB46F0BD002E17D05B4519D05B46B2
:104148005C4201231C43EFE7390002240143EBD111
:10415800D9E7614602241143E6D1D7E761460A430D
:10416800DBD100240028DFD0E9E761460A43E4D127
:10417800E5E7B54203DD01225C421443D4E7B542CA
:10418800CDDB6745DBD809D000246745CCD259463A
:104198004C426141012449420C43C5E7C845CED889
:1041A8000024C845F3D3BFE7FF07000010B50A2273
:1041B800002100F0B7F810BD034B1B681818042342
:1041C800407818407047C04694000020002310B57E
:1041D8009A4203D0CC5CC4540133F9E710BD02788D
:1041E8000B78002A03D0013001319A42F7D0D01A57
:1041F80070470023C25C0133002AFBD1581E704768
:10420800F0B51E00454B87B01B6801920293082247
:104218000B00059003911C7802995D1C09194878D8
:10422800104001D02B00F6E72D2C04D19D1C5C78A2
:104238000123009304E000902B2C01D15C789D1C95
:10424800002E02D0102E0AD162E0302C5ED120223E
:104258002B789343582B54D110266C780235009F45
:1042680031007B1E9F412E4BFF183800FDF706FDDD
:10427800380004913100FDF77BFC0023032207007E
:1042880094461800029A121951780422114201D05A
:10429800303C07E06246114017D03722012900D090
:1042A8002032A41AA64210DD5A1C0BD0B84207D8F7
:1042B80002D1049B9C4203DC70430123201801E0D7
:1042C80001235B422C780135DCE75A1C0BD100989E
:1042D800059A431E9841124BC01822231360019B74
:1042E800002B0AD117E0009A002A00D04042019A18
:1042F800002A10D0039A002B00D06A1E019B1A6076
:1043080009E03024002EAAD10826A8E70A26A6E745
:10431800302C9CD0A3E707B0F0BDC0469400002025
:10432800FFFFFF7F10B513000A0001000248006874
:10433800FFF766FF10BDC046900000200000000097
:10434800000000000D0A0008050A0008000000002F
:1043580000000000790C0008C10A00084750524DBF
:10436800430047504747410024505542582C3431A8
:104378002C312C303030372C303030332C35373628
:1043880030302C302A32420D0A0000B56206080689
:10439800006400010001007A12000000EC1F000810
:1043A8004A1F00084A1F0008481F0008DE1F0008AF
:1043B800DE1F0008D41F0008481F0008DE1F000881
:1043C800D41F0008DE1F0008481F0008E41F00086B
:1043D800E41F0008E41F00086E200008902C000865
:1043E8005E2B0008642C0008542B0008642C00087D
:1043F8006E2C0008642C0008542B00085E2B000863
:104408005E2B00086E2C0008542B00084A2B00086D
:104418004A2B00084A2B0008C02E0008BC320008AE
:104428007C3100087C3100087A3100089432000899
:1044380094320008863200087A3100089432000865
:1044480086320008943200087A3100089C3200084D
:104458009C3200089C3200089C3400080020202070
:10446800202020202020282828282820202020201C
:1044780020202020202020202020202020881010EC
:104488001010101010101010101010101004040448
:104498000404040404040410101010101010414106
:1044A80041414141010101010101010101010101F4
:1044B8000101010101010101101010101010424208
:1044C80042424242020202020202020202020202C4
:1044D8000202020202020202101010102000000064
:1044E80000000000000000000000000000000000C4
:1044F80000000000000000000000000000000000B4
:1045080000000000000000000000000000000000A3
:104518000000000000000000000000000000000093
:104528000000000000000000000000000000000083
:104538000000000000000000000000000000000073
:104548000000000000000000000000000000000063
:0D4558000000000000000000000000000056
:104568000000000001020304010203040607080911
:10457800980000200000000000000000000000007B
:104588000102030406070809006CDC0270430008F6
:104598000000000000000000000000000000000013
:1045A8000000000000000000000000000000000003
:1045B8006843000800000000000000000000000040
:1045C80000000000000000000000000000000000E3
:1045D80000000000000000000000000000000000D3
:1045E80000000000000000000000000000000000C3
:0845F8003000002064440008BB
:04000005080000C52A
:00000001FF
